:020000040000fa
:080000000002040000000000f2
:020000040000fa
:04000800960300005b
:020000040000fa
:04000c00d803000015
:020000040000fa
:0400100018040000d0
:020000040000fa
:04001400b60300002f
:020000040000fa
:04001800f8030000e9
:020000040000fa
:04001c00820400005a
:020000040000fa
:0400200038040000a0
:020000040000fa
:040024008204000052
:020000040000fa
:04002800820400004e
:020000040000fa
:04002c00820400004a
:020000040000fa
:040030008204000046
:020000040000fa
:040034008204000042
:020000040000fa
:04003800820400003e
:020000040000fa
:04003c00820400003a
:020000040000fa
:040040008204000036
:020000040000fa
:040044008204000032
:020000040000fa
:04004800820400002e
:020000040000fa
:04004c00820400002a
:020000040000fa
:040050008204000026
:020000040000fa
:040054008204000022
:020000040000fa
:04005800820400001e
:020000040000fa
:04005c00820400001a
:020000040000fa
:040060008204000016
:020000040000fa
:040064008204000012
:020000040000fa
:04006800820400000e
:020000040000fa
:04006c00820400000a
:020000040000fa
:040070008204000006
:020000040000fa
:040074008204000002
:020000040000fa
:0400780082040000fe
:020000040000fa
:04007c0082040000fa
:020000040000fa
:0400800082040000f6
:020000040000fa
:0400840082040000f2
:020000040000fa
:0400880082040000ee
:020000040000fa
:04008c0082040000ea
:020000040000fa
:0400900082040000e6
:020000040000fa
:0400940082040000e2
:020000040000fa
:0400980082040000de
:020000040000fa
:04009c0082040000da
:020000040000fa
:0400a00082040000d6
:020000040000fa
:0400a40082040000d2
:020000040000fa
:0400a80082040000ce
:020000040000fa
:0400ac0082040000ca
:020000040000fa
:0400b00082040000c6
:020000040000fa
:0400b40082040000c2
:020000040000fa
:0400b80082040000be
:020000040000fa
:0400bc0082040000ba
:020000040000fa
:0400c00082040000b6
:020000040000fa
:0400c40082040000b2
:020000040000fa
:0400c80082040000ae
:020000040000fa
:0400cc0082040000aa
:020000040000fa
:0400d00082040000a6
:020000040000fa
:0400d40082040000a2
:020000040000fa
:0400d800820400009e
:020000040000fa
:0400dc00820400009a
:020000040000fa
:0400e0008204000096
:020000040000fa
:0400e4008204000092
:020000040000fa
:0400e800820400008e
:020000040000fa
:0400ec00820400008a
:020000040000fa
:0400f0008204000086
:020000040000fa
:0400f4008204000082
:020000040000fa
:0400f800820400007e
:020000040000fa
:0400fc00820400007a
:020000040000fa
:040100008204000075
:020000040000fa
:040104008204000071
:020000040000fa
:04010800820400006d
:020000040000fa
:04010c008204000069
:020000040000fa
:040110008204000065
:020000040000fa
:040114008204000061
:020000040000fa
:04011800820400005d
:020000040000fa
:04011c008204000059
:020000040000fa
:040120008204000055
:020000040000fa
:040124008204000051
:020000040000fa
:04012800820400004d
:020000040000fa
:04012c008204000049
:020000040000fa
:040130008204000045
:020000040000fa
:040134008204000041
:020000040000fa
:04013800820400003d
:020000040000fa
:04013c008204000039
:020000040000fa
:040140008204000035
:020000040000fa
:040144008204000031
:020000040000fa
:04014800820400002d
:020000040000fa
:04014c008204000029
:020000040000fa
:040150008204000025
:020000040000fa
:040154008204000021
:020000040000fa
:04015800820400001d
:020000040000fa
:04015c008204000019
:020000040000fa
:040160008204000015
:020000040000fa
:040164008204000011
:020000040000fa
:04016800820400000d
:020000040000fa
:04016c008204000009
:020000040000fa
:040170008204000005
:020000040000fa
:040174008204000001
:020000040000fa
:0401780082040000fd
:020000040000fa
:04017c0082040000f9
:020000040000fa
:0401800082040000f5
:020000040000fa
:0401840082040000f1
:020000040000fa
:0401880082040000ed
:020000040000fa
:04018c0082040000e9
:020000040000fa
:0401900082040000e5
:020000040000fa
:0401940082040000e1
:020000040000fa
:0401980082040000dd
:020000040000fa
:04019c0082040000d9
:020000040000fa
:0401a00082040000d5
:020000040000fa
:0401a40082040000d1
:020000040000fa
:0401a80082040000cd
:020000040000fa
:0401ac0082040000c9
:020000040000fa
:0401b00082040000c5
:020000040000fa
:0401b40082040000c1
:020000040000fa
:0401b80082040000bd
:020000040000fa
:0401bc0082040000b9
:020000040000fa
:0401c00082040000b5
:020000040000fa
:0401c40082040000b1
:020000040000fa
:0401c80082040000ad
:020000040000fa
:0401cc0082040000a9
:020000040000fa
:0401d00082040000a5
:020000040000fa
:0401d40082040000a1
:020000040000fa
:0401d800820400009d
:020000040000fa
:0401dc008204000099
:020000040000fa
:0401e0008204000095
:020000040000fa
:0401e4008204000091
:020000040000fa
:0401e800820400008d
:020000040000fa
:0401ec008204000089
:020000040000fa
:0401f0008204000085
:020000040000fa
:0401f4008204000081
:020000040000fa
:0401f800820400007d
:020000040000fa
:0401fc008204000079
:020000040000fa
:040200008204000074
:020000040000fa
:040204008204000070
:020000040000fa
:04020800820400006c
:020000040000fa
:04020c008204000068
:020000040000fa
:040210008204000064
:020000040000fa
:040214008204000060
:020000040000fa
:04021800820400005c
:020000040000fa
:04021c008204000058
:020000040000fa
:040220008204000054
:020000040000fa
:040224008204000050
:020000040000fa
:04022800820400004c
:020000040000fa
:04022c008204000048
:020000040000fa
:040230008204000044
:020000040000fa
:040234008204000040
:020000040000fa
:04023800820400003c
:020000040000fa
:04023c008204000038
:020000040000fa
:040240008204000034
:020000040000fa
:040244008204000030
:020000040000fa
:04024800820400002c
:020000040000fa
:04024c008204000028
:020000040000fa
:040250008204000024
:020000040000fa
:040254008204000020
:020000040000fa
:04025800820400001c
:020000040000fa
:04025c008204000018
:020000040000fa
:040260008204000014
:020000040000fa
:040264008204000010
:020000040000fa
:04026800820400000c
:020000040000fa
:04026c008204000008
:020000040000fa
:040270008204000004
:020000040000fa
:040274008204000000
:020000040000fa
:0402780082040000fc
:020000040000fa
:04027c0082040000f8
:020000040000fa
:0402800082040000f4
:020000040000fa
:0402840082040000f0
:020000040000fa
:0402880082040000ec
:020000040000fa
:04028c0082040000e8
:020000040000fa
:0402900082040000e4
:020000040000fa
:0402940082040000e0
:020000040000fa
:0402980082040000dc
:020000040000fa
:04029c0082040000d8
:020000040000fa
:0402a00082040000d4
:020000040000fa
:0402a40082040000d0
:020000040000fa
:0402a80082040000cc
:020000040000fa
:0402ac0082040000c8
:020000040000fa
:0402b00082040000c4
:020000040000fa
:0402b40082040000c0
:020000040000fa
:0402b80082040000bc
:020000040000fa
:0402bc0082040000b8
:020000040000fa
:0402c00082040000b4
:020000040000fa
:0402c40082040000b0
:020000040000fa
:0402c80082040000ac
:020000040000fa
:0402cc0082040000a8
:020000040000fa
:0402d00082040000a4
:020000040000fa
:0402d40082040000a0
:020000040000fa
:0402d800820400009c
:020000040000fa
:0402dc008204000098
:020000040000fa
:0402e0008204000094
:020000040000fa
:0402e4008204000090
:020000040000fa
:0402e800820400008c
:020000040000fa
:0402ec008204000088
:020000040000fa
:0402f0008204000084
:020000040000fa
:0402f4008204000080
:020000040000fa
:0402f800820400007c
:020000040000fa
:0402fc008204000078
:020000040000fa
:040300008204000073
:020000040000fa
:04030400820400006f
:020000040000fa
:04030800820400006b
:020000040000fa
:04030c008204000067
:020000040000fa
:040310008204000063
:020000040000fa
:04031400820400005f
:020000040000fa
:04031800820400005b
:020000040000fa
:04031c008204000057
:020000040000fa
:040320008204000053
:020000040000fa
:100400002f0221000eff2c000e01880000002000aa
:100410000000e000020032000001200020028800fd
:10042000140007004d0107000000e00003003a003f
:10043000209a200001002000020037000000200068
:1004400001002000810f70004220ae000f00070065
:10045000000020000000e0004220ae00000002008a
:10046000000000000e080200000000000040da005a
:100470000000fe00200020000000e000020032002a
:10048000100020009001880000000600a1028800f2
:10049000800478000000eb001f003700e284440075
:1004a00054a0b4009905ba00e284440054a0b400fa
:1004b0009906ba00e284440054a0b4000006eb00a0
:1004c000476fde00fd07b200ae018800636ce100fb
:1004d00003003a000ad801000000eb000e003700cc
:1004e000606ce10008003a00004deb000a05e800ee
:1004f000020039003420ec000af0a0008b05e9006e
:10050000f9ff3e00040037006168e100010032009d
:100510000086eb000b00070019c7ba001905ba00e6
:100520000e04e00003003a000a00e000dbff3a009e
:1005300000000600fe07b200ae0288008a047800c0
:10054000f5ff37000cd0a300e20f4d001c0039006e
:1005500089027800354dba000a05e800020039002a
:100560003420ec000af0a0008b05e9000f003200f7
:10057000254dba000a05e800020039003420ec00dd
:100580000af0a0008b05e900080032000c00e00032
:100590000600320015cdba000a05e8000200390055
:1005a0003420ec000af0a0008b05e9008984e80003
:1005b00054a0b4000b00e000e2ff3a000000060087
:1005c0009902ba00055d78008b05e900f7ff32005b
:1005d000c82ade00055d78008b05e900f3ff3200d4
:1005e0000c00e000f1ff320019ddba00eeff370029
:1005f0006100e10001003200100005005400f80025
:1006000050102000a002880000f927001000ba0056
:100610005400f90007e02b0007f0a7008703d10082
:100620000703780001c4fe000003eb000120200056
:1006300090018800819b2800111303008703e900c3
:10064000fdff3a0000f0a6000000050000f0a00049
:1006500080c4fe0086037800f3ff37000408200002
:10066000010037000002eb006100e10001003200f0
:10067000100005003200f8003400f8008102780014
:10068000930188003200be000100e0000c0032003f
:100690000470a70000f0a00032037800c733de002a
:1006a000848343004220af008703e800a70188004d
:1006b000f607b2007f30e100040032002000200085
:1006c0003400f9003200f900000006008100e90062
:1006d0000500e00003003a00018009003210030029
:1006e000e8ff37000180090032900300d561ae00b9
:1006f000e4ff370030002000f1ff370050052000f4
:10070000b00e8800a00a2000b00e8800d3e1a80037
:100710000000060050052000b00e8800a00a20004e
:10072000b00e8800d3e1a900000006003600f800f2
:10073000809fbe00829fbe00849fbe00869fbe0039
:100740000000fa00c028a9000000eb00f102070039
:100750000080fa004f03be004f02be004f01be00f2
:100760004f00be003600f900004006003600f800d9
:10077000809fbe00829fbe00849fbe00869fbe00f9
:100780000000fa00e8020700c048a900100020009d
:10079000e00207000080fa004f03be004f02be00d7
:1007a0004f01be004f00be003600f90000400600b9
:1007b0003600f800809fbe00829fbe00849fbe006e
:1007c000869fbe000000fa00c068a900200020003b
:1007d000d00207000080fa004f03be004f02be00a7
:1007e0004f01be004f00be003600f9000040060079
:1007f0003600f800809fbe00829fbe00849fbe002e
:10080000869fbe000000fa00c088a90030002000ca
:10081000c00207000080fa004f03be004f02be0076
:100820004f01be004f00be003600f9000040060038
:100830003600f800809fbe00829fbe00849fbe00ed
:10084000869fbe000000fa00c608a90070002000c4
:10085000b00207000080fa004f03be004f02be0046
:100860004f01be004f00be003600f90000400600f8
:100870003600f800809fbe00829fbe00849fbe00ad
:10088000869fbe000000fa00214680000010200074
:10089000008060000000e00003003200c508a900ed
:1008a000c00020009b0207002146800000022000bb
:1008b000008060000000e00003003200c4a8a9002e
:1008c0009000200093020700204680007000600026
:1008d0000000e00003003200c488a900a00020004e
:1008e0008c02070020468000610060000000e000ec
:1008f00003003200c408a900b000200085020700f0
:10090000ffff37000040da000000fe000800fa0098
:10091000100798002107980032079800be00900049
:10092000010f7800070037002e009000104078007b
:10093000ae0090008100e800210798004b010700fd
:100940001e0fe9001e0078000000e000f6ff3a00ec
:100950003e0090000080fa00000006000000050044
:020000040000fa
:100960000000fa000023ef000223ef000423ef0051
:100970000623ef0000fa200040188800f0c3290089
:10098000501888000c23ef000e23ef001023ef0017
:100990001223ef001423ef001623ef001823ef00bb
:1009a0001a23ef001c23ef001e23ef002023ef008b
:1009b0002223ef002423ef002623ef002823ef005b
:1009c00000002c00601988002e23ef003023ef0078
:1009d000c0002000901988003423ef003623ef0078
:1009e0003823ef003a23ef003c23ef003e23ef00d3
:1009f0004023ef004223ef004423ef004623ef00a3
:100a00004823ef004a23ef004c23ef004e23ef0072
:100a10005023ef0000012000901a88005423ef00bb
:100a20005623ef005823ef005a23ef005c23ef001a
:100a300000012800501988000080fa00000006001c
:100a40000000fa000080fa00000006000000fa0032
:100a500040408000680060000000e00002003200ba
:100a6000f7ff07000868a9000080fa0000000600f0
:100a70000000fa000080fa00000006000000fa0002
:100a8000a140800000202000008060000000e00005
:100a900002003200f6ff07001528a9000080fa00c6
:100aa000000006000000fa000080fa0000000600c6
:100ab0000000fa00a140800000402000008060009b
:100ac0000000e00002003200f6ff07001548a90010
:100ad0000080fa00000006000000fa000080fa0022
:100ae000000006000000fa00a14080000080200005
:100af000008060000000e00002003200f6ff070006
:100b00001568a9000080fa00000006000000fa0045
:100b10000080fa00000006000000fa00a1408000fa
:100b200000002100008060000000e00002003200b0
:100b3000f6ff07001588a9000080fa0000000600f3
:100b40000000fa000080fa00000006000000fa0031
:100b5000a140800000002200008060000000e00052
:100b600002003200f6ff070015a8a9000080fa0075
:100b7000000006000000fa000080fa0000000600f5
:100b80000000fa00a1408000000024000080600006
:100b90000000e00002003200f6ff070015c8a900bf
:100ba0000080fa00000006000000fa00007c8000cf
:100bb0000080fa00000006000200fa00faff0700b9
:100bc000000f78001e007800240007000004e000f9
:100bd0000200320000002800710007001e007800ab
:100be0002a0007000004e000020032000000240098
:100bf0006b0007001e007800320007000004e000d0
:100c00000200320000202000650007001e0078006e
:100c10003a0007000004e000020032000008200053
:100c20005f0007001e007800420007000004e0009b
:100c30000200320000042000590007001e00780066
:100c40004a0007000004e00002003200000120001a
:100c5000530007000080fa00000006000400fa00bc
:100c6000100798000040eb00004f78001e00900035
:100c70000000e00002003d0010c0b300004f78000b
:100c80001e4078000080fa00000006000400fa0010
:100c9000100798000040eb00004f78009e00900085
:100ca00000002400008060000000e000020032002c
:100cb00010c0b300004f78001e4078000080fa009a
:100cc000000006000400fa00100798000040eb0046
:100cd000004f78009e0090000020200000806000ff
:100ce0000000e0000200320010c0b300004f7800a6
:100cf0001e4078000080fa00000006000400fa00a0
:100d0000100798000040eb00004f78009e00900014
:100d100000082000008060000000e00002003200b7
:100d200010c0b300004f78001e4078000080fa0029
:100d3000000006000400fa00100798000040eb00d5
:100d4000004f78009e0090000004200000806000aa
:100d50000000e0000200320010c0b300004f780035
:100d60001e4078000080fa00000006000400fa002f
:100d7000100798000040eb00004f78001e00900024
:100d8000700060000000e0000200320010c0b300fc
:100d9000004f78001e4078000080fa000000060036
:100da0000200fa00000f78009e80ea00007c8000bc
:100db00000806000007c88000080fa0000000600cf
:100dc0000000fa00802fef000080fa00000006000b
:100dd0000000fa0000082000001388006222ef00e3
:100de0006422ef00200220003013880070062000eb
:100df000401388006a22ef007422ef007622ef0091
:100e00007822ef007a22ef007c22ef007e22ef00b2
:100e10008022ef008222ef008422ef0061e2a8002e
:100e200060a2a8006082a8000080fa00000006000e
:100e30000000fa0000000000301380006200600033
:100e40000000e000fcff3a00201380006200600018
:100e50000000e000010032006422a900601380005d
:100e6000004078000080fa00000006000200fa004e
:100e7000004f780000000000301380007000600018
:100e80000000e000fcff3a001e80fb008013880099
:100e90000080fa00000006000000fa003013800015
:100ea0006200600000f0a7000000ea000000e90016
:100eb0004f00de00004078000080fa0000000600cd
:100ec0000000fa0030138000700060000000e000b5
:100ed00007003a000113800000022000008060003b
:100ee0000000e00002003200100020000100370086
:100ef0000000eb00004078000080fa0000000600cf
:100f00000000fa002013800077800a000000000033
:100f10000080fb0000f0a7000000ea000000ea00eb
:100f20004f00de00004078000080fa00000006005c
:100f30000400fa00301380008000eb00008fbe0038
:100f40001e00be00c001dd00020020002013800052
:100f50008000eb0000007100818071000080fa00c9
:100f6000000006000000fa0061e2a80060a2a800ec
:100f70006082a8000080fa00000006000000fa006d
:100f800061e2a90060a2a9006082a9000080fa00c5
:100f9000000006000200fa00000f78001e00780032
:100fa000e10f500003003a002be3a800000000000e
:100fb00001003700000000000080fa000000060079
:100fc0000200fa00000f78001e007800e10f5000c8
:100fd00003003a002be3a9000000000001003700e5
:100fe000000000000080fa00000006000200fa0085
:100ff000000f78009e007800511888000080fa00e9
:10100000000006000200fa00000f78009e00780041
:10101000411888000080fa00000006000600fa006f
:10102000a3000700f0e12400000f7800007d2000fd
:10103000100798000000eb00200798001e007800c1
:10104000eaff070010002000ddff0700007d200000
:10105000100798001e009000eaff07001000200013
:10106000ccff070000f02900410220009b00070090
:1010700010002000d2ff070000e8230010079800ae
:101080001e009000dfff070010002000c1ff0700d6
:1010900000f029004102200090000700e9ff37001e
:1010a0000000fa00062eef00222eef003e2eef0089
:1010b0005a2eef00762eef00f0012000107088000d
:1010c000d0ff2300f0708800f07f2f00d0718800df
:1010d0000080eb00b07288000080eb009073880005
:1010e0000c2eef00282eef00442eef00602eef00b4
:1010f0007c2eef000a2eef00262eef00422eef008e
:101100005e2eef007a2eef00082eef00242eef0067
:10111000402eef005c2eef00782eef00f001200053
:1011200000708800d0092000e0708800f00c2000da
:10113000c071880000c02700a07288000004200051
:10114000807388000000eb0051052000b146880044
:10115000a10a2000b146880000688800a0c3b3003f
:101160002aedb700d16c8000f00f2c008080600069
:101170000030200001007000d06c8800008020004a
:1011800051052000b1468800a10a2000b146880020
:10119000006888000080fa00000006000000fa00e5
:1011a00010002300307c880060092000407c88000b
:1011b0008c2fef0010042000507c880010102000bd
:1011c000707c880060092000807c8800100420006a
:1011d000907c88009a2fef00b82fef00ba2fef0015
:1011e000be2fef00002def00a42fef00a62fef0081
:1011f000a82fef00aa2fef00ae2fef00b02fef00c7
:10120000b22fef007200200080072000a10920000b
:1012100053f820008049780081497800824978009d
:101220000001eb00600420007105200043f820005d
:101230008049780081497800824978000080fa006e
:10124000000006000000fa00707c8000ee800a00ba
:10125000000000000080fb0000f0a7000000ea0092
:101260000000ea004f00de00004078000080fa0035
:10127000000006000200fa00000f78002102800042
:10128000200f2000008060001e00700020028800f7
:101290000080fa00000006000000fa00c3e8a80081
:1012a00000000000000000000080fa0000000600be
:1012b0000000fa007aff0700b8ff070029000700c6
:1012c000c3fe0700a6fd0700f3ff07000002200091
:0c12d000e8ff07000080fa0000000600a4
:020000040000fa
:1012dc00f03fb1000180b10006003500ee030900bb
:1012ec0000000000403fb1000180b100fbff3d0059
:1012fc001000b000203fb000020035000080090053
:08130c000000000000000600d3
:020000040000fa
:101314000200fa00000f78009e0078000180880027
:10132400ffff37000000fa0020002100800778004a
:10133400a0012100000188000080fa0000000600de
:020000040000fa
:1013440002100000200000008000000000100000d7
:101354000200000082000000ffff00000000000007
:020000040000fa
:0c1364000000fa000080fa000000060003
:020000040000fa
:04137000ffffff007c
:020000040000fa
:02000004000af0
:04fe0000ffffff0001
:020000040000fa
:02000004000af0
:04fe2000ffffff00e1
:020000040000fa
:02000004000af0
:04fe30007fffff0051
:020000040000fa
:02000004000af0
:04fe3800bfffff0009
:020000040000fa
:02000004000af0
:04fe40006003ff005c
:020000040000fa
:02000004000af0
:04fe4800ffffff00b9
:020000040000fa
:02000004000af0
:04fe5000dfffff00d1
:020000040000fa
:02000004000af0
:04fe58000000ff00a7
:020000040000fa
:02000004000af0
:04fe60000000ff009f
:020000040000fa
:02000004000af0
:04fe68000000ff0097
:020000040000fa
:02000004000af0
:04fe70000000ff008f
:020000040000fa
:02000004000af0
:04fe7800ffffff0089
:020000040000fa
:02000004000af0
:04fe8000fffcff0084
:020000040000fa
:02000004000af0
:04fe8800ffffff0079
:020000040000fa
:02000004000af0
:04feb000ffffff0051
:020000040000fa
:02000004000af0
:04fec000ffffff0041
:020000040000fa
:02000004000af0
:04fed000ffffff0031
:020000040000fa
:02000004000af0
:04fee000ffffff0021
:020000040000fa
:02000004000af0
:04fef000ffffff0011
:020000040000fa
:02000004000af0
:04fff800ffffff0008
:020000040000fa
:020000040100f9
:04300000ffffff00cf
:00000001FF
